:100000003703000013035300B7030000938353002A
:1000100063047300630800103703000013035300E8
:10002000B703000093836300630E730E6302000046
:100030003703000013033300B7030000938353001A
:10004000631473006300000E3703000013035300B2
:10005000B7030000938353006316730C6302000020
:10006000370300001303E3FFB7030000938333005B
:10007000634473006308000A37030000130323007E
:10008000B70300009383D3FF634E7308630200003D
:100090003703000013032300B70300009383D3FF4B
:1000A0006354730063000008370300001303E3FF89
:1000B000B7030000938333006356730663020000A6
:1000C00037030000130323009303F0FF93932300EF
:1000D00063647300630800041303F0FF1313230029
:1000E000B703000093832300636E73026302000072
:1000F0001303F0FF13132300B703000093832300BF
:1001000063747300630000023703000013032300CD
:100110009303F0FF93932300637673006302000060
:08012000630000006300000011
:00000001FF
