:10000000370300001303530093037300370E0000FF
:10001000130ECE006392C30D3703000013031300C9
:1000200093133300370E0000130E8E006396C30B3C
:10003000370300001303330093235300370E0000EF
:10004000130E1E00639AC309370300001303530500
:100050009343F300370E0000130EAE05639EC307F3
:10006000370300001303030F93534300370E0000C0
:10007000130EFE006392C30737030000130383FFD0
:1000800093531340370E0000130ECEFF6396C30543
:10009000370300001303030F9363F300370E0000D0
:1000A000130EFE0F639AC303370300001303F30F0D
:1000B0009373F300370E0000130EFE00639EC3011E
:1000C00017030000B70300009383030C631673004B
:0C00D000630200006300000063000000F9
:00000001FF
