:100000003703000013035300B7030000938373000A
:10001000330E7300B70E0000938ECE006316DE130E
:10002000370300001303F300B7030000938373004A
:10003000330E7340B70E0000938E8E006316DE11F0
:100040003703000013031300B7030000938343003A
:10005000331E7300B70E0000938E0E016316DE0F81
:10006000370300001303D3FFB7030000938323007B
:10007000332E7300B70E0000938E1E006316DE0D44
:100080003703000013032300B703000093835300DA
:10009000333E7300B70E0000938E1E006316DE0B16
:1000A0003703000013035305B70300009383A30A2B
:1000B000334E7300B70E0000938EFE0F6316DE09F9
:1000C000370300001303030FB703000093834300BB
:1000D000335E7300B70E0000938EFE006316DE07DA
:1000E00037030000130383FFB7030000938313005B
:1000F000335E7340B70E0000938ECEFF6316DE05AD
:10010000370300001303030FB70300009383F300CA
:10011000336E7300B70E0000938EFE0F6316DE037E
:10012000370300001303F30FB70300009383F300BA
:10013000337E7300B70E0000938EFE006316DE015F
:0C01400063020000630000006300000088
:00000001FF
